:1000000012C019C018C017C016C015C014C013C044
:1000100012C011C010C00FC00EC00DC00CC00BC06C
:100020000AC009C008C011241FBECFE5D4E0DEBF5E
:10003000CDBF02D032C0E4CFCF93DF9300D01F9268
:10004000CDB7DEB781E0898383E08A8387E08B8345
:1000500014BA80E385BB8FEF81BB12BA80E001C088
:1000600080E09D9916C0833009F480E0E1E0F0E083
:10007000EC0FFD1FE80FF11D908192BB2FE936E8D0
:1000800091E0215030409040E1F700C000008F5FC8
:0E009000E8CF9C9BE5CF12BAE4CFF894FFCFE7
:00000001FF
